{
  "_format": "hh-sol-artifact-1",
  "contractName": "NFTMarketplace",
  "sourceName": "contracts/NFTMarketplace.sol",
  "abi": [
    {
      "inputs": [],
      "stateMutability": "nonpayable",
      "type": "constructor"
    },
    {
      "anonymous": false,
      "inputs": [
        {
          "indexed": true,
          "internalType": "address",
          "name": "owner",
          "type": "address"
        },
        {
          "indexed": true,
          "internalType": "address",
          "name": "approved",
          "type": "address"
        },
        {
          "indexed": true,
          "internalType": "uint256",
          "name": "tokenId",
          "type": "uint256"
        }
      ],
      "name": "Approval",
      "type": "event"
    },
    {
      "anonymous": false,
      "inputs": [
        {
          "indexed": true,
          "internalType": "address",
          "name": "owner",
          "type": "address"
        },
        {
          "indexed": true,
          "internalType": "address",
          "name": "operator",
          "type": "address"
        },
        {
          "indexed": false,
          "internalType": "bool",
          "name": "approved",
          "type": "bool"
        }
      ],
      "name": "ApprovalForAll",
      "type": "event"
    },
    {
      "anonymous": false,
      "inputs": [
        {
          "indexed": false,
          "internalType": "uint256",
          "name": "_fromTokenId",
          "type": "uint256"
        },
        {
          "indexed": false,
          "internalType": "uint256",
          "name": "_toTokenId",
          "type": "uint256"
        }
      ],
      "name": "BatchMetadataUpdate",
      "type": "event"
    },
    {
      "anonymous": false,
      "inputs": [
        {
          "indexed": true,
          "internalType": "uint256",
          "name": "tokenId",
          "type": "uint256"
        },
        {
          "indexed": false,
          "internalType": "address",
          "name": "seller",
          "type": "address"
        },
        {
          "indexed": false,
          "internalType": "address",
          "name": "owner",
          "type": "address"
        },
        {
          "indexed": false,
          "internalType": "uint256",
          "name": "price",
          "type": "uint256"
        },
        {
          "indexed": false,
          "internalType": "bool",
          "name": "sold",
          "type": "bool"
        }
      ],
      "name": "MarketItemCreated",
      "type": "event"
    },
    {
      "anonymous": false,
      "inputs": [
        {
          "indexed": false,
          "internalType": "uint256",
          "name": "_tokenId",
          "type": "uint256"
        }
      ],
      "name": "MetadataUpdate",
      "type": "event"
    },
    {
      "anonymous": false,
      "inputs": [
        {
          "indexed": true,
          "internalType": "address",
          "name": "from",
          "type": "address"
        },
        {
          "indexed": true,
          "internalType": "address",
          "name": "to",
          "type": "address"
        },
        {
          "indexed": true,
          "internalType": "uint256",
          "name": "tokenId",
          "type": "uint256"
        }
      ],
      "name": "Transfer",
      "type": "event"
    },
    {
      "inputs": [
        {
          "internalType": "address",
          "name": "to",
          "type": "address"
        },
        {
          "internalType": "uint256",
          "name": "tokenId",
          "type": "uint256"
        }
      ],
      "name": "approve",
      "outputs": [],
      "stateMutability": "nonpayable",
      "type": "function"
    },
    {
      "inputs": [
        {
          "internalType": "address",
          "name": "owner",
          "type": "address"
        }
      ],
      "name": "balanceOf",
      "outputs": [
        {
          "internalType": "uint256",
          "name": "",
          "type": "uint256"
        }
      ],
      "stateMutability": "view",
      "type": "function"
    },
    {
      "inputs": [
        {
          "internalType": "uint256",
          "name": "tokenId",
          "type": "uint256"
        }
      ],
      "name": "createMarketSale",
      "outputs": [],
      "stateMutability": "payable",
      "type": "function"
    },
    {
      "inputs": [
        {
          "internalType": "string",
          "name": "tokenURI",
          "type": "string"
        },
        {
          "internalType": "uint256",
          "name": "price",
          "type": "uint256"
        }
      ],
      "name": "createToken",
      "outputs": [
        {
          "internalType": "uint256",
          "name": "",
          "type": "uint256"
        }
      ],
      "stateMutability": "payable",
      "type": "function"
    },
    {
      "inputs": [],
      "name": "fetchItemsListed",
      "outputs": [
        {
          "components": [
            {
              "internalType": "uint256",
              "name": "tokenId",
              "type": "uint256"
            },
            {
              "internalType": "address payable",
              "name": "seller",
              "type": "address"
            },
            {
              "internalType": "address payable",
              "name": "owner",
              "type": "address"
            },
            {
              "internalType": "uint256",
              "name": "price",
              "type": "uint256"
            },
            {
              "internalType": "bool",
              "name": "sold",
              "type": "bool"
            }
          ],
          "internalType": "struct NFTMarketplace.MarketItem[]",
          "name": "",
          "type": "tuple[]"
        }
      ],
      "stateMutability": "view",
      "type": "function"
    },
    {
      "inputs": [],
      "name": "fetchMarketItems",
      "outputs": [
        {
          "components": [
            {
              "internalType": "uint256",
              "name": "tokenId",
              "type": "uint256"
            },
            {
              "internalType": "address payable",
              "name": "seller",
              "type": "address"
            },
            {
              "internalType": "address payable",
              "name": "owner",
              "type": "address"
            },
            {
              "internalType": "uint256",
              "name": "price",
              "type": "uint256"
            },
            {
              "internalType": "bool",
              "name": "sold",
              "type": "bool"
            }
          ],
          "internalType": "struct NFTMarketplace.MarketItem[]",
          "name": "",
          "type": "tuple[]"
        }
      ],
      "stateMutability": "view",
      "type": "function"
    },
    {
      "inputs": [],
      "name": "fetchMyNFTs",
      "outputs": [
        {
          "components": [
            {
              "internalType": "uint256",
              "name": "tokenId",
              "type": "uint256"
            },
            {
              "internalType": "address payable",
              "name": "seller",
              "type": "address"
            },
            {
              "internalType": "address payable",
              "name": "owner",
              "type": "address"
            },
            {
              "internalType": "uint256",
              "name": "price",
              "type": "uint256"
            },
            {
              "internalType": "bool",
              "name": "sold",
              "type": "bool"
            }
          ],
          "internalType": "struct NFTMarketplace.MarketItem[]",
          "name": "",
          "type": "tuple[]"
        }
      ],
      "stateMutability": "view",
      "type": "function"
    },
    {
      "inputs": [
        {
          "internalType": "uint256",
          "name": "tokenId",
          "type": "uint256"
        }
      ],
      "name": "getApproved",
      "outputs": [
        {
          "internalType": "address",
          "name": "",
          "type": "address"
        }
      ],
      "stateMutability": "view",
      "type": "function"
    },
    {
      "inputs": [],
      "name": "getListingPrice",
      "outputs": [
        {
          "internalType": "uint256",
          "name": "",
          "type": "uint256"
        }
      ],
      "stateMutability": "view",
      "type": "function"
    },
    {
      "inputs": [
        {
          "internalType": "address",
          "name": "owner",
          "type": "address"
        },
        {
          "internalType": "address",
          "name": "operator",
          "type": "address"
        }
      ],
      "name": "isApprovedForAll",
      "outputs": [
        {
          "internalType": "bool",
          "name": "",
          "type": "bool"
        }
      ],
      "stateMutability": "view",
      "type": "function"
    },
    {
      "inputs": [],
      "name": "name",
      "outputs": [
        {
          "internalType": "string",
          "name": "",
          "type": "string"
        }
      ],
      "stateMutability": "view",
      "type": "function"
    },
    {
      "inputs": [
        {
          "internalType": "uint256",
          "name": "tokenId",
          "type": "uint256"
        }
      ],
      "name": "ownerOf",
      "outputs": [
        {
          "internalType": "address",
          "name": "",
          "type": "address"
        }
      ],
      "stateMutability": "view",
      "type": "function"
    },
    {
      "inputs": [
        {
          "internalType": "uint256",
          "name": "tokenId",
          "type": "uint256"
        },
        {
          "internalType": "uint256",
          "name": "price",
          "type": "uint256"
        }
      ],
      "name": "resellToken",
      "outputs": [],
      "stateMutability": "payable",
      "type": "function"
    },
    {
      "inputs": [
        {
          "internalType": "address",
          "name": "from",
          "type": "address"
        },
        {
          "internalType": "address",
          "name": "to",
          "type": "address"
        },
        {
          "internalType": "uint256",
          "name": "tokenId",
          "type": "uint256"
        }
      ],
      "name": "safeTransferFrom",
      "outputs": [],
      "stateMutability": "nonpayable",
      "type": "function"
    },
    {
      "inputs": [
        {
          "internalType": "address",
          "name": "from",
          "type": "address"
        },
        {
          "internalType": "address",
          "name": "to",
          "type": "address"
        },
        {
          "internalType": "uint256",
          "name": "tokenId",
          "type": "uint256"
        },
        {
          "internalType": "bytes",
          "name": "data",
          "type": "bytes"
        }
      ],
      "name": "safeTransferFrom",
      "outputs": [],
      "stateMutability": "nonpayable",
      "type": "function"
    },
    {
      "inputs": [
        {
          "internalType": "address",
          "name": "operator",
          "type": "address"
        },
        {
          "internalType": "bool",
          "name": "approved",
          "type": "bool"
        }
      ],
      "name": "setApprovalForAll",
      "outputs": [],
      "stateMutability": "nonpayable",
      "type": "function"
    },
    {
      "inputs": [
        {
          "internalType": "bytes4",
          "name": "interfaceId",
          "type": "bytes4"
        }
      ],
      "name": "supportsInterface",
      "outputs": [
        {
          "internalType": "bool",
          "name": "",
          "type": "bool"
        }
      ],
      "stateMutability": "view",
      "type": "function"
    },
    {
      "inputs": [],
      "name": "symbol",
      "outputs": [
        {
          "internalType": "string",
          "name": "",
          "type": "string"
        }
      ],
      "stateMutability": "view",
      "type": "function"
    },
    {
      "inputs": [
        {
          "internalType": "uint256",
          "name": "tokenId",
          "type": "uint256"
        }
      ],
      "name": "tokenURI",
      "outputs": [
        {
          "internalType": "string",
          "name": "",
          "type": "string"
        }
      ],
      "stateMutability": "view",
      "type": "function"
    },
    {
      "inputs": [
        {
          "internalType": "address",
          "name": "from",
          "type": "address"
        },
        {
          "internalType": "address",
          "name": "to",
          "type": "address"
        },
        {
          "internalType": "uint256",
          "name": "tokenId",
          "type": "uint256"
        }
      ],
      "name": "transferFrom",
      "outputs": [],
      "stateMutability": "nonpayable",
      "type": "function"
    },
    {
      "inputs": [
        {
          "internalType": "uint256",
          "name": "_listingPrice",
          "type": "uint256"
        }
      ],
      "name": "updateListingPrice",
      "outputs": [],
      "stateMutability": "payable",
      "type": "function"
    }
  ],
  "bytecode": "0x60806040526658d15e17628000600a553480156200001c57600080fd5b506040518060400160405280601081526020017f4d657461766572736520546f6b656e73000000000000000000000000000000008152506040518060400160405280600481526020017f4d455454000000000000000000000000000000000000000000000000000000008152508160009080519060200190620000a192919062000104565b508060019080519060200190620000ba92919062000104565b50505033600b60006101000a81548173ffffffffffffffffffffffffffffffffffffffff021916908373ffffffffffffffffffffffffffffffffffffffff16021790555062000219565b8280546200011290620001e3565b90600052602060002090601f01602090048101928262000136576000855562000182565b82601f106200015157805160ff191683800117855562000182565b8280016001018555821562000182579182015b828111156200018157825182559160200191906001019062000164565b5b50905062000191919062000195565b5090565b5b80821115620001b057600081600090555060010162000196565b5090565b7f4e487b7100000000000000000000000000000000000000000000000000000000600052602260045260246000fd5b60006002820490506001821680620001fc57607f821691505b60208210811415620002135762000212620001b4565b5b50919050565b61414180620002296000396000f3fe60806040526004361061012a5760003560e01c80636352211e116100ab578063ae677aa31161006f578063ae677aa3146103f9578063b88d4fde14610415578063be9af5361461043e578063c87b56dd1461045a578063e219fc7514610497578063e985e9c5146104b35761012a565b80636352211e146102fb57806370a082311461033857806372b3b6201461037557806395d89b41146103a5578063a22cb465146103d05761012a565b806312e85585116100f257806312e8558514610228578063202e37401461025357806323b872dd1461027e57806342842e0e146102a757806345f8fa80146102d05761012a565b806301ffc9a71461012f57806306fdde031461016c578063081812fc14610197578063095ea7b3146101d45780630f08efe0146101fd575b600080fd5b34801561013b57600080fd5b5061015660048036038101906101519190612c56565b6104f0565b6040516101639190612c9e565b60405180910390f35b34801561017857600080fd5b50610181610551565b60405161018e9190612d52565b60405180910390f35b3480156101a357600080fd5b506101be60048036038101906101b99190612daa565b6105e3565b6040516101cb9190612e18565b60405180910390f35b3480156101e057600080fd5b506101fb60048036038101906101f69190612e5f565b610629565b005b34801561020957600080fd5b50610212610741565b60405161021f9190612ff5565b60405180910390f35b34801561023457600080fd5b5061023d6109aa565b60405161024a9190613026565b60405180910390f35b34801561025f57600080fd5b506102686109b4565b6040516102759190612ff5565b60405180910390f35b34801561028a57600080fd5b506102a560048036038101906102a09190613041565b610ca2565b005b3480156102b357600080fd5b506102ce60048036038101906102c99190613041565b610d02565b005b3480156102dc57600080fd5b506102e5610d22565b6040516102f29190612ff5565b60405180910390f35b34801561030757600080fd5b50610322600480360381019061031d9190612daa565b611010565b60405161032f9190612e18565b60405180910390f35b34801561034457600080fd5b5061035f600480360381019061035a9190613094565b611097565b60405161036c9190613026565b60405180910390f35b61038f600480360381019061038a91906131f6565b61114f565b60405161039c9190613026565b60405180910390f35b3480156103b157600080fd5b506103ba611191565b6040516103c79190612d52565b60405180910390f35b3480156103dc57600080fd5b506103f760048036038101906103f2919061327e565b611223565b005b610413600480360381019061040e9190612daa565b611239565b005b34801561042157600080fd5b5061043c6004803603810190610437919061335f565b6112d3565b005b61045860048036038101906104539190612daa565b611335565b005b34801561046657600080fd5b50610481600480360381019061047c9190612daa565b611573565b60405161048e9190612d52565b60405180910390f35b6104b160048036038101906104ac91906133e2565b611686565b005b3480156104bf57600080fd5b506104da60048036038101906104d59190613422565b61187b565b6040516104e79190612c9e565b60405180910390f35b6000634906490660e01b7bffffffffffffffffffffffffffffffffffffffffffffffffffffffff1916827bffffffffffffffffffffffffffffffffffffffffffffffffffffffff1916148061054a57506105498261190f565b5b9050919050565b60606000805461056090613491565b80601f016020809104026020016040519081016040528092919081815260200182805461058c90613491565b80156105d95780601f106105ae576101008083540402835291602001916105d9565b820191906000526020600020905b8154815290600101906020018083116105bc57829003601f168201915b5050505050905090565b60006105ee826119f1565b6004600083815260200190815260200160002060009054906101000a900473ffffffffffffffffffffffffffffffffffffffff169050919050565b600061063482611010565b90508073ffffffffffffffffffffffffffffffffffffffff168373ffffffffffffffffffffffffffffffffffffffff1614156106a5576040517f08c379a000000000000000000000000000000000000000000000000000000000815260040161069c90613535565b60405180910390fd5b8073ffffffffffffffffffffffffffffffffffffffff166106c4611a3c565b73ffffffffffffffffffffffffffffffffffffffff1614806106f357506106f2816106ed611a3c565b61187b565b5b610732576040517f08c379a0000000000000000000000000000000000000000000000000000000008152600401610729906135c7565b60405180910390fd5b61073c8383611a44565b505050565b6060600061074f6007611afd565b9050600061075d6008611afd565b6107676007611afd565b6107719190613616565b90506000808267ffffffffffffffff8111156107905761078f6130cb565b5b6040519080825280602002602001820160405280156107c957816020015b6107b6612aea565b8152602001906001900390816107ae5790505b50905060005b8481101561099f573073ffffffffffffffffffffffffffffffffffffffff16600c60006001846107ff919061364a565b815260200190815260200160002060020160009054906101000a900473ffffffffffffffffffffffffffffffffffffffff1673ffffffffffffffffffffffffffffffffffffffff16141561098c57600060018261085c919061364a565b90506000600c60008381526020019081526020016000209050806040518060a0016040529081600082015481526020016001820160009054906101000a900473ffffffffffffffffffffffffffffffffffffffff1673ffffffffffffffffffffffffffffffffffffffff1673ffffffffffffffffffffffffffffffffffffffff1681526020016002820160009054906101000a900473ffffffffffffffffffffffffffffffffffffffff1673ffffffffffffffffffffffffffffffffffffffff1673ffffffffffffffffffffffffffffffffffffffff168152602001600382015481526020016004820160009054906101000a900460ff16151515158152505084868151811061096f5761096e6136a0565b5b6020026020010181905250600185610987919061364a565b945050505b8080610997906136cf565b9150506107cf565b508094505050505090565b6000600a54905090565b606060006109c26007611afd565b905060008060005b83811015610a6b573373ffffffffffffffffffffffffffffffffffffffff16600c60006001846109fa919061364a565b815260200190815260200160002060020160009054906101000a900473ffffffffffffffffffffffffffffffffffffffff1673ffffffffffffffffffffffffffffffffffffffff161415610a5857600183610a55919061364a565b92505b8080610a63906136cf565b9150506109ca565b5060008267ffffffffffffffff811115610a8857610a876130cb565b5b604051908082528060200260200182016040528015610ac157816020015b610aae612aea565b815260200190600190039081610aa65790505b50905060005b84811015610c97573373ffffffffffffffffffffffffffffffffffffffff16600c6000600184610af7919061364a565b815260200190815260200160002060020160009054906101000a900473ffffffffffffffffffffffffffffffffffffffff1673ffffffffffffffffffffffffffffffffffffffff161415610c84576000600182610b54919061364a565b90506000600c60008381526020019081526020016000209050806040518060a0016040529081600082015481526020016001820160009054906101000a900473ffffffffffffffffffffffffffffffffffffffff1673ffffffffffffffffffffffffffffffffffffffff1673ffffffffffffffffffffffffffffffffffffffff1681526020016002820160009054906101000a900473ffffffffffffffffffffffffffffffffffffffff1673ffffffffffffffffffffffffffffffffffffffff1673ffffffffffffffffffffffffffffffffffffffff168152602001600382015481526020016004820160009054906101000a900460ff161515151581525050848681518110610c6757610c666136a0565b5b6020026020010181905250600185610c7f919061364a565b945050505b8080610c8f906136cf565b915050610ac7565b508094505050505090565b610cb3610cad611a3c565b82611b0b565b610cf2576040517f08c379a0000000000000000000000000000000000000000000000000000000008152600401610ce99061378a565b60405180910390fd5b610cfd838383611ba0565b505050565b610d1d838383604051806020016040528060008152506112d3565b505050565b60606000610d306007611afd565b905060008060005b83811015610dd9573373ffffffffffffffffffffffffffffffffffffffff16600c6000600184610d68919061364a565b815260200190815260200160002060010160009054906101000a900473ffffffffffffffffffffffffffffffffffffffff1673ffffffffffffffffffffffffffffffffffffffff161415610dc657600183610dc3919061364a565b92505b8080610dd1906136cf565b915050610d38565b5060008267ffffffffffffffff811115610df657610df56130cb565b5b604051908082528060200260200182016040528015610e2f57816020015b610e1c612aea565b815260200190600190039081610e145790505b50905060005b84811015611005573373ffffffffffffffffffffffffffffffffffffffff16600c6000600184610e65919061364a565b815260200190815260200160002060010160009054906101000a900473ffffffffffffffffffffffffffffffffffffffff1673ffffffffffffffffffffffffffffffffffffffff161415610ff2576000600182610ec2919061364a565b90506000600c60008381526020019081526020016000209050806040518060a0016040529081600082015481526020016001820160009054906101000a900473ffffffffffffffffffffffffffffffffffffffff1673ffffffffffffffffffffffffffffffffffffffff1673ffffffffffffffffffffffffffffffffffffffff1681526020016002820160009054906101000a900473ffffffffffffffffffffffffffffffffffffffff1673ffffffffffffffffffffffffffffffffffffffff1673ffffffffffffffffffffffffffffffffffffffff168152602001600382015481526020016004820160009054906101000a900460ff161515151581525050848681518110610fd557610fd46136a0565b5b6020026020010181905250600185610fed919061364a565b945050505b8080610ffd906136cf565b915050610e35565b508094505050505090565b60008061101c83611e9a565b9050600073ffffffffffffffffffffffffffffffffffffffff168173ffffffffffffffffffffffffffffffffffffffff16141561108e576040517f08c379a0000000000000000000000000000000000000000000000000000000008152600401611085906137f6565b60405180910390fd5b80915050919050565b60008073ffffffffffffffffffffffffffffffffffffffff168273ffffffffffffffffffffffffffffffffffffffff161415611108576040517f08c379a00000000000000000000000000000000000000000000000000000000081526004016110ff90613888565b60405180910390fd5b600360008373ffffffffffffffffffffffffffffffffffffffff1673ffffffffffffffffffffffffffffffffffffffff168152602001908152602001600020549050919050565b600061115b6007611ed7565b60006111676007611afd565b90506111733382611eed565b61117d818561210b565b61118781846121b6565b8091505092915050565b6060600180546111a090613491565b80601f01602080910402602001604051908101604052809291908181526020018280546111cc90613491565b80156112195780601f106111ee57610100808354040283529160200191611219565b820191906000526020600020905b8154815290600101906020018083116111fc57829003601f168201915b5050505050905090565b61123561122e611a3c565b83836123b9565b5050565b3373ffffffffffffffffffffffffffffffffffffffff16600b60009054906101000a900473ffffffffffffffffffffffffffffffffffffffff1673ffffffffffffffffffffffffffffffffffffffff16146112c9576040517f08c379a00000000000000000000000000000000000000000000000000000000081526004016112c09061391a565b60405180910390fd5b80600a8190555050565b6112e46112de611a3c565b83611b0b565b611323576040517f08c379a000000000000000000000000000000000000000000000000000000000815260040161131a9061378a565b60405180910390fd5b61132f84848484612526565b50505050565b6000600c60008381526020019081526020016000206003015490506000600c600084815260200190815260200160002060010160009054906101000a900473ffffffffffffffffffffffffffffffffffffffff1690508134146113cd576040517f08c379a00000000000000000000000000000000000000000000000000000000081526004016113c4906139ac565b60405180910390fd5b33600c600085815260200190815260200160002060020160006101000a81548173ffffffffffffffffffffffffffffffffffffffff021916908373ffffffffffffffffffffffffffffffffffffffff1602179055506001600c600085815260200190815260200160002060040160006101000a81548160ff0219169083151502179055506000600c600085815260200190815260200160002060010160006101000a81548173ffffffffffffffffffffffffffffffffffffffff021916908373ffffffffffffffffffffffffffffffffffffffff1602179055506114b16008611ed7565b6114bc303385611ba0565b600b60009054906101000a900473ffffffffffffffffffffffffffffffffffffffff1673ffffffffffffffffffffffffffffffffffffffff166108fc600a549081150290604051600060405180830381858888f19350505050158015611526573d6000803e3d6000fd5b508073ffffffffffffffffffffffffffffffffffffffff166108fc349081150290604051600060405180830381858888f1935050505015801561156d573d6000803e3d6000fd5b50505050565b606061157e826119f1565b600060066000848152602001908152602001600020805461159e90613491565b80601f01602080910402602001604051908101604052809291908181526020018280546115ca90613491565b80156116175780601f106115ec57610100808354040283529160200191611617565b820191906000526020600020905b8154815290600101906020018083116115fa57829003601f168201915b505050505090506000611628612582565b905060008151141561163e578192505050611681565b60008251111561167357808260405160200161165b929190613a08565b60405160208183030381529060405292505050611681565b61167c84612599565b925050505b919050565b3373ffffffffffffffffffffffffffffffffffffffff16600c600084815260200190815260200160002060020160009054906101000a900473ffffffffffffffffffffffffffffffffffffffff1673ffffffffffffffffffffffffffffffffffffffff161461172a576040517f08c379a000000000000000000000000000000000000000000000000000000000815260040161172190613a9e565b60405180910390fd5b600a54341461176e576040517f08c379a000000000000000000000000000000000000000000000000000000000815260040161176590613b30565b60405180910390fd5b6000600c600084815260200190815260200160002060040160006101000a81548160ff02191690831515021790555080600c60008481526020019081526020016000206003018190555033600c600084815260200190815260200160002060010160006101000a81548173ffffffffffffffffffffffffffffffffffffffff021916908373ffffffffffffffffffffffffffffffffffffffff16021790555030600c600084815260200190815260200160002060020160006101000a81548173ffffffffffffffffffffffffffffffffffffffff021916908373ffffffffffffffffffffffffffffffffffffffff16021790555061186c6008612601565b611877333084611ba0565b5050565b6000600560008473ffffffffffffffffffffffffffffffffffffffff1673ffffffffffffffffffffffffffffffffffffffff16815260200190815260200160002060008373ffffffffffffffffffffffffffffffffffffffff1673ffffffffffffffffffffffffffffffffffffffff16815260200190815260200160002060009054906101000a900460ff16905092915050565b60007f80ac58cd000000000000000000000000000000000000000000000000000000007bffffffffffffffffffffffffffffffffffffffffffffffffffffffff1916827bffffffffffffffffffffffffffffffffffffffffffffffffffffffff191614806119da57507f5b5e139f000000000000000000000000000000000000000000000000000000007bffffffffffffffffffffffffffffffffffffffffffffffffffffffff1916827bffffffffffffffffffffffffffffffffffffffffffffffffffffffff1916145b806119ea57506119e98261265d565b5b9050919050565b6119fa816126c7565b611a39576040517f08c379a0000000000000000000000000000000000000000000000000000000008152600401611a30906137f6565b60405180910390fd5b50565b600033905090565b816004600083815260200190815260200160002060006101000a81548173ffffffffffffffffffffffffffffffffffffffff021916908373ffffffffffffffffffffffffffffffffffffffff160217905550808273ffffffffffffffffffffffffffffffffffffffff16611ab783611010565b73ffffffffffffffffffffffffffffffffffffffff167f8c5be1e5ebec7d5bd14f71427d1e84f3dd0314c0f7b2291e5b200ac8c7c3b92560405160405180910390a45050565b600081600001549050919050565b600080611b1783611010565b90508073ffffffffffffffffffffffffffffffffffffffff168473ffffffffffffffffffffffffffffffffffffffff161480611b595750611b58818561187b565b5b80611b9757508373ffffffffffffffffffffffffffffffffffffffff16611b7f846105e3565b73ffffffffffffffffffffffffffffffffffffffff16145b91505092915050565b8273ffffffffffffffffffffffffffffffffffffffff16611bc082611010565b73ffffffffffffffffffffffffffffffffffffffff1614611c16576040517f08c379a0000000000000000000000000000000000000000000000000000000008152600401611c0d90613bc2565b60405180910390fd5b600073ffffffffffffffffffffffffffffffffffffffff168273ffffffffffffffffffffffffffffffffffffffff161415611c86576040517f08c379a0000000000000000000000000000000000000000000000000000000008152600401611c7d90613c54565b60405180910390fd5b611c938383836001612708565b8273ffffffffffffffffffffffffffffffffffffffff16611cb382611010565b73ffffffffffffffffffffffffffffffffffffffff1614611d09576040517f08c379a0000000000000000000000000000000000000000000000000000000008152600401611d0090613bc2565b60405180910390fd5b6004600082815260200190815260200160002060006101000a81549073ffffffffffffffffffffffffffffffffffffffff02191690556001600360008573ffffffffffffffffffffffffffffffffffffffff1673ffffffffffffffffffffffffffffffffffffffff168152602001908152602001600020600082825403925050819055506001600360008473ffffffffffffffffffffffffffffffffffffffff1673ffffffffffffffffffffffffffffffffffffffff16815260200190815260200160002060008282540192505081905550816002600083815260200190815260200160002060006101000a81548173ffffffffffffffffffffffffffffffffffffffff021916908373ffffffffffffffffffffffffffffffffffffffff160217905550808273ffffffffffffffffffffffffffffffffffffffff168473ffffffffffffffffffffffffffffffffffffffff167fddf252ad1be2c89b69c2b068fc378daa952ba7f163c4a11628f55a4df523b3ef60405160405180910390a4611e95838383600161270e565b505050565b60006002600083815260200190815260200160002060009054906101000a900473ffffffffffffffffffffffffffffffffffffffff169050919050565b6001816000016000828254019250508190555050565b600073ffffffffffffffffffffffffffffffffffffffff168273ffffffffffffffffffffffffffffffffffffffff161415611f5d576040517f08c379a0000000000000000000000000000000000000000000000000000000008152600401611f5490613cc0565b60405180910390fd5b611f66816126c7565b15611fa6576040517f08c379a0000000000000000000000000000000000000000000000000000000008152600401611f9d90613d2c565b60405180910390fd5b611fb4600083836001612708565b611fbd816126c7565b15611ffd576040517f08c379a0000000000000000000000000000000000000000000000000000000008152600401611ff490613d2c565b60405180910390fd5b6001600360008473ffffffffffffffffffffffffffffffffffffffff1673ffffffffffffffffffffffffffffffffffffffff16815260200190815260200160002060008282540192505081905550816002600083815260200190815260200160002060006101000a81548173ffffffffffffffffffffffffffffffffffffffff021916908373ffffffffffffffffffffffffffffffffffffffff160217905550808273ffffffffffffffffffffffffffffffffffffffff16600073ffffffffffffffffffffffffffffffffffffffff167fddf252ad1be2c89b69c2b068fc378daa952ba7f163c4a11628f55a4df523b3ef60405160405180910390a461210760008383600161270e565b5050565b612114826126c7565b612153576040517f08c379a000000000000000000000000000000000000000000000000000000000815260040161214a90613dbe565b60405180910390fd5b8060066000848152602001908152602001600020908051906020019061217a929190612b47565b507ff8e1a15aba9398e019f0b49df1a4fde98ee17ae345cb5f6b5e2c27f5033e8ce7826040516121aa9190613026565b60405180910390a15050565b600081116121f9576040517f08c379a00000000000000000000000000000000000000000000000000000000081526004016121f090613e2a565b60405180910390fd5b600a54341461223d576040517f08c379a000000000000000000000000000000000000000000000000000000000815260040161223490613b30565b60405180910390fd5b6040518060a001604052808381526020013373ffffffffffffffffffffffffffffffffffffffff1681526020013073ffffffffffffffffffffffffffffffffffffffff16815260200182815260200160001515815250600c60008481526020019081526020016000206000820151816000015560208201518160010160006101000a81548173ffffffffffffffffffffffffffffffffffffffff021916908373ffffffffffffffffffffffffffffffffffffffff16021790555060408201518160020160006101000a81548173ffffffffffffffffffffffffffffffffffffffff021916908373ffffffffffffffffffffffffffffffffffffffff1602179055506060820151816003015560808201518160040160006101000a81548160ff021916908315150217905550905050612376333084611ba0565b817fb640004f1d14576d0c209e240cad0410e0d8c0c33a09375861fbadae2588a98d33308460006040516123ad9493929190613e4a565b60405180910390a25050565b8173ffffffffffffffffffffffffffffffffffffffff168373ffffffffffffffffffffffffffffffffffffffff161415612428576040517f08c379a000000000000000000000000000000000000000000000000000000000815260040161241f90613edb565b60405180910390fd5b80600560008573ffffffffffffffffffffffffffffffffffffffff1673ffffffffffffffffffffffffffffffffffffffff16815260200190815260200160002060008473ffffffffffffffffffffffffffffffffffffffff1673ffffffffffffffffffffffffffffffffffffffff16815260200190815260200160002060006101000a81548160ff0219169083151502179055508173ffffffffffffffffffffffffffffffffffffffff168373ffffffffffffffffffffffffffffffffffffffff167f17307eab39ab6107e8899845ad3d59bd9653f200f220920489ca2b5937696c31836040516125199190612c9e565b60405180910390a3505050565b612531848484611ba0565b61253d84848484612714565b61257c576040517f08c379a000000000000000000000000000000000000000000000000000000000815260040161257390613f6d565b60405180910390fd5b50505050565b606060405180602001604052806000815250905090565b60606125a4826119f1565b60006125ae612582565b905060008151116125ce57604051806020016040528060008152506125f9565b806125d88461289c565b6040516020016125e9929190613a08565b6040516020818303038152906040525b915050919050565b6000816000015490506000811161264d576040517f08c379a000000000000000000000000000000000000000000000000000000000815260040161264490613fd9565b60405180910390fd5b6001810382600001819055505050565b60007f01ffc9a7000000000000000000000000000000000000000000000000000000007bffffffffffffffffffffffffffffffffffffffffffffffffffffffff1916827bffffffffffffffffffffffffffffffffffffffffffffffffffffffff1916149050919050565b60008073ffffffffffffffffffffffffffffffffffffffff166126e983611e9a565b73ffffffffffffffffffffffffffffffffffffffff1614159050919050565b50505050565b50505050565b60006127358473ffffffffffffffffffffffffffffffffffffffff16612974565b1561288f578373ffffffffffffffffffffffffffffffffffffffff1663150b7a0261275e611a3c565b8786866040518563ffffffff1660e01b8152600401612780949392919061404e565b6020604051808303816000875af19250505080156127bc57506040513d601f19601f820116820180604052508101906127b991906140af565b60015b61283f573d80600081146127ec576040519150601f19603f3d011682016040523d82523d6000602084013e6127f1565b606091505b50600081511415612837576040517f08c379a000000000000000000000000000000000000000000000000000000000815260040161282e90613f6d565b60405180910390fd5b805181602001fd5b63150b7a0260e01b7bffffffffffffffffffffffffffffffffffffffffffffffffffffffff1916817bffffffffffffffffffffffffffffffffffffffffffffffffffffffff191614915050612894565b600190505b949350505050565b6060600060016128ab84612997565b01905060008167ffffffffffffffff8111156128ca576128c96130cb565b5b6040519080825280601f01601f1916602001820160405280156128fc5781602001600182028036833780820191505090505b509050600082602001820190505b600115612969578080600190039150507f3031323334353637383961626364656600000000000000000000000000000000600a86061a8153600a8581612953576129526140dc565b5b049450600085141561296457612969565b61290a565b819350505050919050565b6000808273ffffffffffffffffffffffffffffffffffffffff163b119050919050565b600080600090507a184f03e93ff9f4daa797ed6e38ed64bf6a1f01000000000000000083106129f5577a184f03e93ff9f4daa797ed6e38ed64bf6a1f01000000000000000083816129eb576129ea6140dc565b5b0492506040810190505b6d04ee2d6d415b85acef81000000008310612a32576d04ee2d6d415b85acef81000000008381612a2857612a276140dc565b5b0492506020810190505b662386f26fc100008310612a6157662386f26fc100008381612a5757612a566140dc565b5b0492506010810190505b6305f5e1008310612a8a576305f5e1008381612a8057612a7f6140dc565b5b0492506008810190505b6127108310612aaf576127108381612aa557612aa46140dc565b5b0492506004810190505b60648310612ad25760648381612ac857612ac76140dc565b5b0492506002810190505b600a8310612ae1576001810190505b80915050919050565b6040518060a0016040528060008152602001600073ffffffffffffffffffffffffffffffffffffffff168152602001600073ffffffffffffffffffffffffffffffffffffffff168152602001600081526020016000151581525090565b828054612b5390613491565b90600052602060002090601f016020900481019282612b755760008555612bbc565b82601f10612b8e57805160ff1916838001178555612bbc565b82800160010185558215612bbc579182015b82811115612bbb578251825591602001919060010190612ba0565b5b509050612bc99190612bcd565b5090565b5b80821115612be6576000816000905550600101612bce565b5090565b6000604051905090565b600080fd5b600080fd5b60007fffffffff0000000000000000000000000000000000000000000000000000000082169050919050565b612c3381612bfe565b8114612c3e57600080fd5b50565b600081359050612c5081612c2a565b92915050565b600060208284031215612c6c57612c6b612bf4565b5b6000612c7a84828501612c41565b91505092915050565b60008115159050919050565b612c9881612c83565b82525050565b6000602082019050612cb36000830184612c8f565b92915050565b600081519050919050565b600082825260208201905092915050565b60005b83811015612cf3578082015181840152602081019050612cd8565b83811115612d02576000848401525b50505050565b6000601f19601f8301169050919050565b6000612d2482612cb9565b612d2e8185612cc4565b9350612d3e818560208601612cd5565b612d4781612d08565b840191505092915050565b60006020820190508181036000830152612d6c8184612d19565b905092915050565b6000819050919050565b612d8781612d74565b8114612d9257600080fd5b50565b600081359050612da481612d7e565b92915050565b600060208284031215612dc057612dbf612bf4565b5b6000612dce84828501612d95565b91505092915050565b600073ffffffffffffffffffffffffffffffffffffffff82169050919050565b6000612e0282612dd7565b9050919050565b612e1281612df7565b82525050565b6000602082019050612e2d6000830184612e09565b92915050565b612e3c81612df7565b8114612e4757600080fd5b50565b600081359050612e5981612e33565b92915050565b60008060408385031215612e7657612e75612bf4565b5b6000612e8485828601612e4a565b9250506020612e9585828601612d95565b9150509250929050565b600081519050919050565b600082825260208201905092915050565b6000819050602082019050919050565b612ed481612d74565b82525050565b6000612ee582612dd7565b9050919050565b612ef581612eda565b82525050565b612f0481612c83565b82525050565b60a082016000820151612f206000850182612ecb565b506020820151612f336020850182612eec565b506040820151612f466040850182612eec565b506060820151612f596060850182612ecb565b506080820151612f6c6080850182612efb565b50505050565b6000612f7e8383612f0a565b60a08301905092915050565b6000602082019050919050565b6000612fa282612e9f565b612fac8185612eaa565b9350612fb783612ebb565b8060005b83811015612fe8578151612fcf8882612f72565b9750612fda83612f8a565b925050600181019050612fbb565b5085935050505092915050565b6000602082019050818103600083015261300f8184612f97565b905092915050565b61302081612d74565b82525050565b600060208201905061303b6000830184613017565b92915050565b60008060006060848603121561305a57613059612bf4565b5b600061306886828701612e4a565b935050602061307986828701612e4a565b925050604061308a86828701612d95565b9150509250925092565b6000602082840312156130aa576130a9612bf4565b5b60006130b884828501612e4a565b91505092915050565b600080fd5b600080fd5b7f4e487b7100000000000000000000000000000000000000000000000000000000600052604160045260246000fd5b61310382612d08565b810181811067ffffffffffffffff82111715613122576131216130cb565b5b80604052505050565b6000613135612bea565b905061314182826130fa565b919050565b600067ffffffffffffffff821115613161576131606130cb565b5b61316a82612d08565b9050602081019050919050565b82818337600083830152505050565b600061319961319484613146565b61312b565b9050828152602081018484840111156131b5576131b46130c6565b5b6131c0848285613177565b509392505050565b600082601f8301126131dd576131dc6130c1565b5b81356131ed848260208601613186565b91505092915050565b6000806040838503121561320d5761320c612bf4565b5b600083013567ffffffffffffffff81111561322b5761322a612bf9565b5b613237858286016131c8565b925050602061324885828601612d95565b9150509250929050565b61325b81612c83565b811461326657600080fd5b50565b60008135905061327881613252565b92915050565b6000806040838503121561329557613294612bf4565b5b60006132a385828601612e4a565b92505060206132b485828601613269565b9150509250929050565b600067ffffffffffffffff8211156132d9576132d86130cb565b5b6132e282612d08565b9050602081019050919050565b60006133026132fd846132be565b61312b565b90508281526020810184848401111561331e5761331d6130c6565b5b613329848285613177565b509392505050565b600082601f830112613346576133456130c1565b5b81356133568482602086016132ef565b91505092915050565b6000806000806080858703121561337957613378612bf4565b5b600061338787828801612e4a565b945050602061339887828801612e4a565b93505060406133a987828801612d95565b925050606085013567ffffffffffffffff8111156133ca576133c9612bf9565b5b6133d687828801613331565b91505092959194509250565b600080604083850312156133f9576133f8612bf4565b5b600061340785828601612d95565b925050602061341885828601612d95565b9150509250929050565b6000806040838503121561343957613438612bf4565b5b600061344785828601612e4a565b925050602061345885828601612e4a565b9150509250929050565b7f4e487b7100000000000000000000000000000000000000000000000000000000600052602260045260246000fd5b600060028204905060018216806134a957607f821691505b602082108114156134bd576134bc613462565b5b50919050565b7f4552433732313a20617070726f76616c20746f2063757272656e74206f776e6560008201527f7200000000000000000000000000000000000000000000000000000000000000602082015250565b600061351f602183612cc4565b915061352a826134c3565b604082019050919050565b6000602082019050818103600083015261354e81613512565b9050919050565b7f4552433732313a20617070726f76652063616c6c6572206973206e6f7420746f60008201527f6b656e206f776e6572206f7220617070726f76656420666f7220616c6c000000602082015250565b60006135b1603d83612cc4565b91506135bc82613555565b604082019050919050565b600060208201905081810360008301526135e0816135a4565b9050919050565b7f4e487b7100000000000000000000000000000000000000000000000000000000600052601160045260246000fd5b600061362182612d74565b915061362c83612d74565b92508282101561363f5761363e6135e7565b5b828203905092915050565b600061365582612d74565b915061366083612d74565b9250827fffffffffffffffffffffffffffffffffffffffffffffffffffffffffffffffff03821115613695576136946135e7565b5b828201905092915050565b7f4e487b7100000000000000000000000000000000000000000000000000000000600052603260045260246000fd5b60006136da82612d74565b91507fffffffffffffffffffffffffffffffffffffffffffffffffffffffffffffffff82141561370d5761370c6135e7565b5b600182019050919050565b7f4552433732313a2063616c6c6572206973206e6f7420746f6b656e206f776e6560008201527f72206f7220617070726f76656400000000000000000000000000000000000000602082015250565b6000613774602d83612cc4565b915061377f82613718565b604082019050919050565b600060208201905081810360008301526137a381613767565b9050919050565b7f4552433732313a20696e76616c696420746f6b656e2049440000000000000000600082015250565b60006137e0601883612cc4565b91506137eb826137aa565b602082019050919050565b6000602082019050818103600083015261380f816137d3565b9050919050565b7f4552433732313a2061646472657373207a65726f206973206e6f74206120766160008201527f6c6964206f776e65720000000000000000000000000000000000000000000000602082015250565b6000613872602983612cc4565b915061387d82613816565b604082019050919050565b600060208201905081810360008301526138a181613865565b9050919050565b7f4f6e6c79206d61726b6574706c616365206f776e65722063616e20757064617460008201527f65206c697374696e672070726963652e00000000000000000000000000000000602082015250565b6000613904603083612cc4565b915061390f826138a8565b604082019050919050565b60006020820190508181036000830152613933816138f7565b9050919050565b7f506c65617365207375626d6974207468652061736b696e67207072696365206960008201527f6e206f7264657220746f20636f6d706c65746520746865207075726368617365602082015250565b6000613996604083612cc4565b91506139a18261393a565b604082019050919050565b600060208201905081810360008301526139c581613989565b9050919050565b600081905092915050565b60006139e282612cb9565b6139ec81856139cc565b93506139fc818560208601612cd5565b80840191505092915050565b6000613a1482856139d7565b9150613a2082846139d7565b91508190509392505050565b7f4f6e6c79206974656d206f776e65722063616e20706572666f726d207468697360008201527f206f7065726174696f6e00000000000000000000000000000000000000000000602082015250565b6000613a88602a83612cc4565b9150613a9382613a2c565b604082019050919050565b60006020820190508181036000830152613ab781613a7b565b9050919050565b7f5072696365206d75737420626520657175616c20746f206c697374696e67207060008201527f7269636500000000000000000000000000000000000000000000000000000000602082015250565b6000613b1a602483612cc4565b9150613b2582613abe565b604082019050919050565b60006020820190508181036000830152613b4981613b0d565b9050919050565b7f4552433732313a207472616e736665722066726f6d20696e636f72726563742060008201527f6f776e6572000000000000000000000000000000000000000000000000000000602082015250565b6000613bac602583612cc4565b9150613bb782613b50565b604082019050919050565b60006020820190508181036000830152613bdb81613b9f565b9050919050565b7f4552433732313a207472616e7366657220746f20746865207a65726f2061646460008201527f7265737300000000000000000000000000000000000000000000000000000000602082015250565b6000613c3e602483612cc4565b9150613c4982613be2565b604082019050919050565b60006020820190508181036000830152613c6d81613c31565b9050919050565b7f4552433732313a206d696e7420746f20746865207a65726f2061646472657373600082015250565b6000613caa602083612cc4565b9150613cb582613c74565b602082019050919050565b60006020820190508181036000830152613cd981613c9d565b9050919050565b7f4552433732313a20746f6b656e20616c7265616479206d696e74656400000000600082015250565b6000613d16601c83612cc4565b9150613d2182613ce0565b602082019050919050565b60006020820190508181036000830152613d4581613d09565b9050919050565b7f45524337323155524953746f726167653a2055524920736574206f66206e6f6e60008201527f6578697374656e7420746f6b656e000000000000000000000000000000000000602082015250565b6000613da8602e83612cc4565b9150613db382613d4c565b604082019050919050565b60006020820190508181036000830152613dd781613d9b565b9050919050565b7f5072696365206d757374206265206174206c6561737420312077656900000000600082015250565b6000613e14601c83612cc4565b9150613e1f82613dde565b602082019050919050565b60006020820190508181036000830152613e4381613e07565b9050919050565b6000608082019050613e5f6000830187612e09565b613e6c6020830186612e09565b613e796040830185613017565b613e866060830184612c8f565b95945050505050565b7f4552433732313a20617070726f766520746f2063616c6c657200000000000000600082015250565b6000613ec5601983612cc4565b9150613ed082613e8f565b602082019050919050565b60006020820190508181036000830152613ef481613eb8565b9050919050565b7f4552433732313a207472616e7366657220746f206e6f6e20455243373231526560008201527f63656976657220696d706c656d656e7465720000000000000000000000000000602082015250565b6000613f57603283612cc4565b9150613f6282613efb565b604082019050919050565b60006020820190508181036000830152613f8681613f4a565b9050919050565b7f436f756e7465723a2064656372656d656e74206f766572666c6f770000000000600082015250565b6000613fc3601b83612cc4565b9150613fce82613f8d565b602082019050919050565b60006020820190508181036000830152613ff281613fb6565b9050919050565b600081519050919050565b600082825260208201905092915050565b600061402082613ff9565b61402a8185614004565b935061403a818560208601612cd5565b61404381612d08565b840191505092915050565b60006080820190506140636000830187612e09565b6140706020830186612e09565b61407d6040830185613017565b818103606083015261408f8184614015565b905095945050505050565b6000815190506140a981612c2a565b92915050565b6000602082840312156140c5576140c4612bf4565b5b60006140d38482850161409a565b91505092915050565b7f4e487b7100000000000000000000000000000000000000000000000000000000600052601260045260246000fdfea2646970667358221220b0880fa637dfa05aaf5ae63a9c803e0b08e2e8545d1b64b9de02a850c60dd97d64736f6c634300080a0033",
  "linkReferences": {},
  "deployedLinkReferences": {}
}